{
  "contractName": "Authenticity",
  "abi": [
    {
      "anonymous": false,
      "inputs": [
        {
          "indexed": false,
          "internalType": "address",
          "name": "author",
          "type": "address"
        },
        {
          "indexed": false,
          "internalType": "string",
          "name": "fileHash",
          "type": "string"
        },
        {
          "indexed": false,
          "internalType": "uint256",
          "name": "timestamp",
          "type": "uint256"
        },
        {
          "indexed": false,
          "internalType": "uint256",
          "name": "fileSize",
          "type": "uint256"
        },
        {
          "indexed": false,
          "internalType": "string",
          "name": "fileExtension",
          "type": "string"
        }
      ],
      "name": "FileCertified",
      "type": "event"
    },
    {
      "inputs": [
        {
          "internalType": "uint256",
          "name": "fileSize",
          "type": "uint256"
        },
        {
          "internalType": "string",
          "name": "fileHash",
          "type": "string"
        },
        {
          "internalType": "string",
          "name": "fileExtension",
          "type": "string"
        }
      ],
      "name": "certifyFile",
      "outputs": [],
      "stateMutability": "payable",
      "type": "function"
    },
    {
      "inputs": [
        {
          "internalType": "string",
          "name": "fileHash",
          "type": "string"
        }
      ],
      "name": "verifyFile",
      "outputs": [
        {
          "internalType": "address",
          "name": "",
          "type": "address"
        },
        {
          "internalType": "string",
          "name": "",
          "type": "string"
        },
        {
          "internalType": "uint256",
          "name": "",
          "type": "uint256"
        },
        {
          "internalType": "uint256",
          "name": "",
          "type": "uint256"
        },
        {
          "internalType": "string",
          "name": "",
          "type": "string"
        }
      ],
      "stateMutability": "view",
      "type": "function"
    }
  ],
  "bytecode": "0x608060405234801561001057600080fd5b506108be806100206000396000f3fe6080604052600436106100295760003560e01c806390d991e61461002e578063b02710231461004a575b600080fd5b61004860048036038101906100439190610525565b61008b565b005b34801561005657600080fd5b50610071600480360381019061006c91906104e4565b6101c8565b604051610082959493929190610643565b60405180910390f35b60006040518060a001604052803373ffffffffffffffffffffffffffffffffffffffff168152602001848152602001428152602001858152602001838152509050806000846040516100dd919061062c565b908152602001604051809103902060008201518160000160006101000a81548173ffffffffffffffffffffffffffffffffffffffff021916908373ffffffffffffffffffffffffffffffffffffffff160217905550602082015181600101908051906020019061014e9291906103c4565b506040820151816002015560608201518160030155608082015181600401908051906020019061017f9291906103c4565b509050507f7233f1f5a296ceee040647096ea8b83745c99e3a2e329004608ae07ac3b9ea2c33844287866040516101ba959493929190610643565b60405180910390a150505050565b6000606060008060606000866040516101e1919061062c565b908152602001604051809103902060000160009054906101000a900473ffffffffffffffffffffffffffffffffffffffff16600087604051610223919061062c565b9081526020016040518091039020600101600088604051610244919061062c565b908152602001604051809103902060020154600089604051610266919061062c565b90815260200160405180910390206003015460008a604051610288919061062c565b90815260200160405180910390206004018380546102a59061079f565b80601f01602080910402602001604051908101604052809291908181526020018280546102d19061079f565b801561031e5780601f106102f35761010080835404028352916020019161031e565b820191906000526020600020905b81548152906001019060200180831161030157829003601f168201915b505050505093508080546103319061079f565b80601f016020809104026020016040519081016040528092919081815260200182805461035d9061079f565b80156103aa5780601f1061037f576101008083540402835291602001916103aa565b820191906000526020600020905b81548152906001019060200180831161038d57829003601f168201915b505050505090509450945094509450945091939590929450565b8280546103d09061079f565b90600052602060002090601f0160209004810192826103f25760008555610439565b82601f1061040b57805160ff1916838001178555610439565b82800160010185558215610439579182015b8281111561043857825182559160200191906001019061041d565b5b509050610446919061044a565b5090565b5b8082111561046357600081600090555060010161044b565b5090565b600061047a610475846106c9565b6106a4565b90508281526020810184848401111561049257600080fd5b61049d84828561075d565b509392505050565b600082601f8301126104b657600080fd5b81356104c6848260208601610467565b91505092915050565b6000813590506104de81610871565b92915050565b6000602082840312156104f657600080fd5b600082013567ffffffffffffffff81111561051057600080fd5b61051c848285016104a5565b91505092915050565b60008060006060848603121561053a57600080fd5b6000610548868287016104cf565b935050602084013567ffffffffffffffff81111561056557600080fd5b610571868287016104a5565b925050604084013567ffffffffffffffff81111561058e57600080fd5b61059a868287016104a5565b9150509250925092565b6105ad81610721565b82525050565b60006105be826106fa565b6105c88185610705565b93506105d881856020860161076c565b6105e181610860565b840191505092915050565b60006105f7826106fa565b6106018185610716565b935061061181856020860161076c565b80840191505092915050565b61062681610753565b82525050565b600061063882846105ec565b915081905092915050565b600060a08201905061065860008301886105a4565b818103602083015261066a81876105b3565b9050610679604083018661061d565b610686606083018561061d565b818103608083015261069881846105b3565b90509695505050505050565b60006106ae6106bf565b90506106ba82826107d1565b919050565b6000604051905090565b600067ffffffffffffffff8211156106e4576106e3610831565b5b6106ed82610860565b9050602081019050919050565b600081519050919050565b600082825260208201905092915050565b600081905092915050565b600061072c82610733565b9050919050565b600073ffffffffffffffffffffffffffffffffffffffff82169050919050565b6000819050919050565b82818337600083830152505050565b60005b8381101561078a57808201518184015260208101905061076f565b83811115610799576000848401525b50505050565b600060028204905060018216806107b757607f821691505b602082108114156107cb576107ca610802565b5b50919050565b6107da82610860565b810181811067ffffffffffffffff821117156107f9576107f8610831565b5b80604052505050565b7f4e487b7100000000000000000000000000000000000000000000000000000000600052602260045260246000fd5b7f4e487b7100000000000000000000000000000000000000000000000000000000600052604160045260246000fd5b6000601f19601f8301169050919050565b61087a81610753565b811461088557600080fd5b5056fea264697066735822122014c106d1f074b9411a6f00bb79a7e73a2cb40dc1dc1578c26a4eb0d5b33ab83064736f6c63430008040033",
  "immutableReferences": {},
  "source": "// SPDX-License-Identifier: GPL-3.0\r\npragma solidity >=0.4.22 <0.9.0;\r\n\r\ncontract Authenticity{\r\n    event FileCertified(address author, string fileHash, uint timestamp, uint fileSize, string fileExtension);\r\n\r\n    struct FileCertificate{\r\n        address author;\r\n        string fileHash;\r\n        uint timestamp;\r\n        uint fileSize;\r\n        string fileExtension;\r\n    }\r\n\r\n    mapping(string =>FileCertificate) fileCertificatesMap;\r\n\r\n    function certifyFile(uint fileSize, string memory fileHash, string memory fileExtension) public payable{\r\n        FileCertificate memory newFileCertificate = FileCertificate(msg.sender, fileHash, block.timestamp, fileSize, fileExtension);\r\n        fileCertificatesMap[fileHash]= newFileCertificate;\r\n        emit FileCertified(msg.sender, fileHash, block.timestamp, fileSize, fileExtension);\r\n    }\r\n\r\n    function verifyFile(string memory fileHash) public view returns(address, string memory, uint, uint, string memory){\r\n        return (fileCertificatesMap[fileHash].author,\r\n        fileCertificatesMap[fileHash].fileHash,\r\n        fileCertificatesMap[fileHash].timestamp,\r\n        fileCertificatesMap[fileHash].fileSize,\r\n        fileCertificatesMap[fileHash].fileExtension\r\n        );\r\n    }\r\n}",
  "sourcePath": "C:\\Users\\Shashi\\blockchain\\sih\\contracts\\Authenticity.sol",
  "compiler": {
    "name": "solc",
    "version": "0.8.4+commit.c7e474f2.Emscripten.clang"
  },
  "schemaVersion": "3.4.15",
  "updatedAt": "2023-09-12T19:41:57.227Z",
  "devdoc": {
    "kind": "dev",
    "methods": {},
    "version": 1
  },
  "userdoc": {
    "kind": "user",
    "methods": {},
    "version": 1
  }
}